:020000040800F2
:1000000000000220C9060008AD060008AF0600087F
:10001000B1060008B3060008B5060008000000009D
:10002000000000000000000000000000B70600080B
:10003000B906000800000000BB060008BD06000865
:100040001907000819070008190700081907000810
:100050001907000819070008190700081907000800
:1000600019070008190700081907000819070008F0
:1000700019070008190700081907000819070008E0
:1000800019070008190700081907000819070008D0
:1000900019070008190700081907000819070008C0
:1000A00019070008190700081907000819070008B0
:1000B00019070008190700081907000819070008A0
:1000C0001907000819070008190700081907000890
:1000D0001907000819070008190700081907000880
:1000E0001907000819070008190700081907000870
:1000F0001907000819070008190700081907000860
:10010000190700081907000819070008190700084F
:10011000190700081907000819070008190700083F
:10012000190700081907000819070008190700082F
:10013000190700081907000819070008190700081F
:10014000190700081907000819070008190700080F
:1001500019070008190700081907000819070008FF
:1001600019070008190700081907000819070008EF
:100170001907000819070008190700080000000007
:08018000190700081907000827
:1001880010B5054C237833B9044B13B10448AFF3C9
:1001980000800123237010BD100000200000000023
:1001A8004015000808B5034B1BB103490348AFF3DA
:1001B800008008BD00000000140000204015000861
:1001C80053B94AB9002908BF00281CBF4FF0FF31B6
:1001D8004FF0FF3000F06AB9ADF1080C6DE904CEBC
:1001E80000F006F8DDF804E0DDE9022304B070470A
:1001F8002DE9F047089D0C46002B4ED194468C45BE
:100208008646B2FA82F262D94AB1C2F1200391401D
:1002180020FA03F30CFA02FC194300FA02FE4FEA33
:100228001C471FFA8CF6B1FBF7F44FEA1E4307FB95
:10023800141143EA014304FB06F199420AD91CEB65
:10024800030304F1FF3080F01281994240F20F81DC
:10025800023C6344591A1FFA8EF3B1FBF7F007FB0F
:10026800101143EA014300FB06F69E420AD91CEB33
:10027800030300F1FF3180F0FC809E4240F2F980D8
:10028800634402389B1B40EA044000211DB1D3405F
:100298000022C5E90032BDE8F0878B4205D90DB1CF
:1002A800C5E9000100210846F5E7B3FA83F1002902
:1002B80046D1A34202D39042C0F0F080861A64EB84
:1002C80003030120002DE6D0C5E90063E3E7002A17
:1002D80040F09080A1EB0C044FEA1C481FFA8CF701
:1002E8000121B4FBF8F64FEA1E4308FB164443EA23
:1002F800044307FB06F0984208D91CEB030306F1F8
:10030800FF3402D2984200F2CD8026461C1A1FFA0A
:100318008EF3B4FBF8F008FB104443EA044300FBF7
:1003280007F79F4208D91CEB030300F1FF3402D200
:100338009F4200F2B0802046DB1B40EA0640A5E75A
:10034800C1F120068B4022FA06F71F4320FA06FC6B
:1003580004FA01F343EA0C03F44000FA01F8380CFC
:100368004FEA1349B4FBF0FE1FFA87FC00FB1E445A
:1003780049EA04440EFB0CF9A14502FA01F20AD934
:100388003C190EF1FF3A80F08480A14540F281804B
:10039800AEF1020E3C44A4EB09041FFA83F9B4FB46
:1003A800F0F300FB134449EA044403FB0CFCA445A6
:1003B80007D93C1903F1FF3067D2A44565D9023B40
:1003C8003C4443EA0E40A0FB0293A4EB0C049C427D
:1003D800CE469C4651D34ED055B1B8EB0E0364EBD4
:1003E8000C0404FA06F6CB401E43CC40C5E9006471
:1003F800002150E7C2F1200320FA03F10CFA02FCB5
:1004080024FA03F394400C434FEA1C4800FA02FE16
:100418001FFA8CF7B3FBF8F008FB1031230C43EA02
:10042800014300FB07F1994208D91CEB030300F1D3
:10043800FF362CD299422AD9023863445B1AA4B2F7
:10044800B3FBF8F108FB113344EA034401FB07F35B
:10045800A34208D91CEB040401F1FF3613D2A342CE
:1004680011D902396444E41A41EA004139E70446E3
:10047800F0E6084606E7C845AED2B9EB020E63EBD4
:10048800070C0138A8E73146EDE7034699E73046FF
:10049800D4E7D6467FE7634402384DE7064623464D
:1004A80008460FE7023E634430E700BF704700BFCD
:1004B800034613F8012B002AFBD1181A013870479C
:1004C80082B000230193064B1A6B42F001021A63B3
:1004D8001B6B03F001030193019B02B0704700BF3F
:1004E8000038024072B6FEE708B50A480A4B0360B6
:1004F8004FF4E133436000238360C36003610C223F
:1005080042618361C36100F0EEFE00B908BDFFF7E8
:10051800E9FF00BF2C0000200010014000B595B095
:100528003022002108A800F074FF002303930493ED
:100538000593069307930193184A116C41F0805173
:100548001164126C02F080520192019A0293144ACB
:10055800116841F480411160126802F480420292ED
:10056800029A0222089201220B9210220C920E93F8
:1005780008A800F099FA68B90F23039300210491A1
:1005880005910691079103A800F0DEFC20B915B08B
:100598005DF804FBFFF7A6FFFFF7A4FF0038024051
:1005A8000070004000B589B000F0DAF8FFF7B6FF38
:1005B800FFF786FFFFF798FFEC460D4C0FCCACE831
:1005C8000F0094E80F00ACE807002CF8023B1B0C66
:1005D8008CF800306846FFF76BFF4FF47A7382B2ED
:1005E8006946044800F0AFFEC82000F0E5F8E3E7EC
:1005F800581500082C00002082B0002100910B4BF8
:100608005A6C42F480425A645A6C02F48042009256
:10061800009A01911A6C42F080521A641B6C03F024
:1006280080530193019B02B0704700BF003802401D
:1006380000B589B0002303930493059306930793A9
:10064800026803F1804303F588339A4202D009B067
:100658005DF804FB0021019103F594335A6C42F0D4
:1006680010025A645A6C02F010020192019A029127
:100678001A6B42F001021A631B6B03F00103029329
:10068800029B4FF4C063039302230493032306934E
:100698000723079303A9024800F00CF9D7E700BF26
:1006A80000000240FEE7FEE7FEE7FEE7FEE77047D0
:1006B8007047704708B500F06DF808BD7047000036
:1006C800DFF834D0FFF7FAFF0C480D490D4A002334
:1006D80002E0D458C4500433C4188C42F9D30A4AEF
:1006E8000A4C002301E013600432A242FBD300F05D
:1006F80099FEFFF757FF7047000002200000002016
:1007080010000020A415000810000020100200208E
:10071800FEE7000010B504460E4B1A784FF47A73C2
:10072800B3FBF2F30C4A1068B0FBF3F000F0AEF83C
:1007380068B90F2C01D901200AE0002221464FF0A8
:10074800FF3000F093F8054B1C60002000E001200A
:1007580010BD00BF04000020000000200800002099
:1007680008B50B4B1A6842F400721A601A6842F412
:1007780080621A601A6842F480721A60032000F0DE
:1007880063F80F20FFF7C6FFFFF736FF002008BD0C
:10079800003C0240034A1168034B1B780B4413606A
:1007A800704700BF7400002004000020014B186847
:1007B800704700BF7400002038B50446FFF7F6FF05
:1007C8000546B4F1FF3F02D0044B1B781C44FFF7E9
:1007D800EDFF401BA042FAD338BD00BF0400002043
:1007E800002808DB0901C9B200F1604000F561404A
:1007F80080F80013704700F00F000901C9B2014BDF
:100808001954704714ED00E000B500F00700C0F17E
:10081800070CBCF1040F28BF4FF0040C031D062B76
:100828000FD9C31E4FF0FF3E0EFA0CF021EA00016B
:1008380099400EFA03FE22EA0E0241EA02005DF830
:1008480004FB0023EEE70000074AD36823F4E063C3
:100858001B041B0C000200F4E060034343F0BF6379
:1008680043F40033D360704700ED00E010B5044650
:10087800054BD868C0F30220FFF7C6FF01462046A3
:10088800FFF7AEFF10BD00BF00ED00E00138B0F18A
:10089800807F0BD24FF0E0235861054AF02182F89F
:1008A80023100020986107221A61704701207047C1
:1008B80000ED00E000230F2B00F2EC8030B583B090
:1008C80068E085684FEA430E032404FA0EF425EA2B
:1008D8000405CC6804FA0EF42C438460446824EAC6
:1008E80002044A68C2F300129A40224342605FE061
:1008F800DC08083450F8242003F00705AD004FF059
:100908000F0E0EFA05FE22EA0E0E0A69AA4042EA06
:100918000E0240F824205FE0072200E0002202FADD
:100928000EF22A4302345C4D45F824205B4A946851
:100938006FEA0C0224EA0C05D1F804E01EF4801FCB
:1009480001D04CEA0405554CA560E46802EA0405A8
:10095800D1F804E01EF4001F01D04CEA04054F4C06
:10096800E560646802EA0405D1F804E01EF4003F7B
:1009780001D04CEA0405494C6560246822404D6862
:1009880015F4803F01D04CEA0402444C2260013344
:100998000F2B7DD801229A400C6804EA020C32EA37
:1009A8000404F4D14C6804F00304013C012C88D9F8
:1009B8004A6802F00302032A09D0C4685D000322D2
:1009C800AA4024EA02048A68AA402243C2604A680C
:1009D80002F00302022A8BD004684FEA430E032276
:1009E80002FA0EF224EA02044A6802F0030202FA4A
:1009F8000EF2224302604A6812F4403FC7D0002238
:100A08000192274A546C44F480445464526C02F4B2
:100A180080420192019A9C08A51C1F4A52F8255051
:100A280003F0030E4FEA8E0E0F2202FA0EF225EAA9
:100A380002051C4A90423FF471AF02F58062904271
:100A48001AD002F58062904218D002F58062904276
:100A580016D002F58062904214D002F5806290426E
:100A680012D002F58062904210D002F58062904266
:100A78003FF452AF082252E7012250E702224EE724
:100A880003224CE704224AE7052248E7062246E704
:100A980003B030BD704700BF00380140003C014042
:100AA8000038024000000240002800F0E08170B5E4
:100AB80082B00446036813F0010F3BD09F4B9B683C
:100AC80003F00C03042B2CD09C4B9B6803F00C0305
:100AD800082B21D06368B3F5803F4FD0B3F5A02F22
:100AE80052D0964B1A6822F480321A601A6822F49F
:100AF80080221A606368002B50D0FFF757FE054626
:100B08008E4B1B6813F4003F14D1FFF74FFE401BB8
:100B18006428F5D90320B1E1884B5B6813F4800F92
:100B2800D8D0864B1B6813F4003F03D06368002BB2
:100B380000F09F81236813F0020F54D07F4B9B680D
:100B480013F00C0F3ED07D4B9B6803F00C03082B71
:100B580033D0E368002B68D0794B01221A60FFF785
:100B680025FE0546754B1B6813F0020F54D1FFF79D
:100B78001DFE401B0228F5D903207FE16F4A136848
:100B880043F480331360B5E76C4B1A6842F4802253
:100B98001A601A6842F480321A60ABE7FFF706FE63
:100BA8000546664B1B6813F4003FC3D0FFF7FEFDF4
:100BB800401B6428F5D9032060E1604B5B6813F49F
:100BC800800FC6D15D4B1B6813F0020F03D0E3689A
:100BD800012B40F05081594A136823F0F80321692A
:100BE80043EAC1031360236813F0080F42D0636916
:100BF8006BB3534B0122C3F8802EFFF7D7FD054690
:100C08004E4B5B6F13F0020F34D1FFF7CFFD401B43
:100C18000228F5D9032031E1484A136823F0F80384
:100C2800216943EAC1031360DDE7454B00221A60DE
:100C3800FFF7BCFD0546414B1B6813F0020FD2D0ED
:100C4800FFF7B4FD401B0228F5D9032016E13C4B01
:100C58000022C3F8802EFFF7A9FD0546374B5B6FCE
:100C680013F0020F06D0FFF7A1FD401B0228F5D9AB
:100C7800032003E1236813F0040F77D02F4B1B6C7C
:100C880013F0805F33D1002301932C4B1A6C42F090
:100C980080521A641B6C03F080530193019B012559
:100CA800284B1B6813F4807F23D0A368012B34D012
:100CB800052B38D0214B1A6F22F001021A671A6FE0
:100CC80022F004021A67A368002B3DD0FFF76EFDDF
:100CD80006461A4B1B6F13F0020F46D1FFF766FD4D
:100CE800801B41F288339842F3D90320C6E00025DF
:100CF800D6E7144A136843F480731360FFF756FD70
:100D08000646104B1B6813F4807FCED1FFF74EFDCB
:100D1800801B0228F5D90320B0E0084A136F43F07E
:100D280001031367CFE7054B1A6F42F004021A67F5
:100D38001A6F42F001021A67C5E700BF0038024087
:100D48000000474200700040FFF730FD0646524B56
:100D58001B6F13F0020F08D0FFF728FD801B41F22C
:100D680088339842F3D9032088E0EDB9A369002BB2
:100D780000F08380484A926802F00C02082A51D099
:100D8800022B17D0454B00221A66FFF70FFD0446C9
:100D9800414B1B6813F0007F42D0FFF707FD001B93
:100DA8000228F5D9032069E03B4A136C23F08053ED
:100DB8001364DBE7394B00221A66FFF7F7FC054698
:100DC800354B1B6813F0007F06D0FFF7EFFC401B84
:100DD8000228F5D9032051E0E369226A1343626AC5
:100DE80043EA8213A26A5208013A43EA0243E26ADA
:100DF80043EA0263284A5360284B01221A66FFF728
:100E0800D5FC0446244B1B6813F0007F06D1FFF77E
:100E1800CDFC001B0228F5D903202FE000202DE08F
:100E280000202BE0012B2BD01B4B5B6803F48001C7
:100E3800E269914226D103F03F02216A8A4223D116
:100E4800616A47F6C0721A40B2EB811F1ED103F4E3
:100E58004031A26A5208013AB1EB024F18D103F0AF
:100E68007063E26AB3EB026F14D1002006E0012040
:100E78007047012002E0012000E0002002B070BDB0
:100E88000120FBE70120F9E70120F7E70120F5E75A
:100E98000120F3E70120F1E7003802400000474253
:100EA80008B5264B9B6803F00C03042B41D0082B94
:100EB80041D1224B5A6802F03F025B6813F4800F5D
:100EC80012D01E4B5968C1F388111D480023A1FB9D
:100ED8000001FFF775F9194B5B68C3F30143013350
:100EE8005B00B0FBF3F027E0144B5868C0F38810A0
:100EF8004FEA401CBCEB000C6EEB0E0E4FEA8E1353
:100F080043EA9C634FEA8C11B1EB0C0163EB0E03CF
:100F1800DB0043EA5173C90011EB000C43F10003F5
:100F2800990200234FEA8C2041EA9C51FFF748F9C7
:100F3800D1E7034800E0034808BD00BF003802407D
:100F480040787D010024F400002800F09B8070B5F3
:100F58000D4604464F4B1B6803F007038B4208D22B
:100F6800CBB24C4A1370136803F007038B4240F06E
:100F78008B80236813F0020F17D013F0040F04D0EE
:100F8800454A936843F4E0539360236813F0080FCD
:100F980004D0414A936843F4604393603E4A93689F
:100FA80023F0F003A1680B439360236813F0010F4B
:100FB80032D06368012B21D09A1E012A25D9364ADE
:100FC800126812F0020F61D033498A6822F00302D6
:100FD80013438B60FFF7EAFB06462F4B9B6803F031
:100FE8000C036268B3EB820F16D0FFF7DFFB801BA0
:100FF80041F288339842F0D9032042E0264A126829
:1010080012F4003FE0D101203BE0234A126812F0BD
:10101800007FD9D1012034E01E4B1B6803F0070381
:10102800AB4207D9EAB21B4B1A701B6803F00703DF
:10103800AB422DD1236813F0040F06D0164A9368EB
:1010480023F4E053E1680B439360236813F0080F1F
:1010580007D0114A936823F46043216943EAC10326
:101068009360FFF71DFF0C4B9B68C3F303130B4AF8
:10107800D35CD8400A4B18600A4B1868FFF74AFB44
:10108800002070BD012070470120FAE70120F8E731
:101098000120F6E7003C02400038024080150008B5
:1010A8000000002008000020014B1868704700BFAE
:1010B8000000002008B5FFF7F7FF044B9B68C3F357
:1010C8008223034AD35CD84008BD00BF00380240E1
:1010D8007815000808B5FFF7E7FF044B9B68C3F3D2
:1010E8004233034AD35CD84008BD00BF00380240F1
:1010F80078150008026802F10C0353E8003F23F456
:1011080090730C3242E800310029F3D1026802F1F1
:10111800140353E8003F23F00103143242E800317E
:101128000029F3D1036B012B05D0202380F842302E
:10113800002303637047026802F10C0353E8003F81
:1011480023F010030C3242E800310029F3D1ECE718
:1011580010B504460268136923F44053C1680B4371
:101168001361836802691A4343691A43C3691A43BE
:101178000168CB6823F4164323F00C031343CB60B8
:101188000268536923F4407381690B435361036810
:10119800314A934206D002F58062934202D0FFF7AB
:1011A80089FF01E0FFF796FFE369B3F5004F29D007
:1011B8000021031849411B1841F10001C90041EA07
:1011C8005371DB00181863684FEA83024FEA937380
:1011D80041F10001FEF7F4FF204AA2FB0031490962
:1011E800642303FB11031B013233A2FB03235B09B6
:1011F80003F0F00202EB011203F00F03216813441D
:101208008B6010BD0023021843EB0301121841F153
:101218000001C90041EA5271D200101841F10001E1
:10122800626892185B41FEF7CBFF0C4AA2FB0031C3
:101238004909642303FB1103DB003233A2FB0323B8
:101248005B095A0002F4F87202EB011203F007037B
:10125800216813448B60D4E7001001401F85EB51CF
:101268002DE9F04383B005460E4617469946DDF84A
:1012780028802B681C6836EA04040CBF012400246B
:10128800BC4228D1B8F1FF3FF3D0FFF78FFAA0EBAB
:101298000900404523D8B8F1000F22D02B68DA683E
:1012A80012F0040FE5D0802EE3D0402EE1D01A686A
:1012B80012F0080FDDD0002401941A6801925B68CF
:1012C8000193019B2846FFF715FF08236B6485F8F7
:1012D8004040012000E0002003B0BDE8F083032077
:1012E800FAE70320F8E760B310B5044690F84130F8
:1012F80013B3242384F841302268D36823F40053BD
:10130800D3602046FFF724FF2268136923F4904333
:1013180013612268536923F02A0353612268D36852
:1013280043F40053D36000206064202384F84130E4
:1013380084F84230606310BD80F84030FFF778F9D8
:10134800D7E7012070472DE9F04182B01E4690F89A
:101358004130DBB2202B56D104460D469046002979
:1013680055D00AB901204FE000234364212380F8B7
:101378004130FFF71BFA0746A4F82480A4F826801A
:10138800A368B3F5805F02D04FF0000814E023692A
:101398002BB34FF000080FE0202384F841300320DE
:1013A80032E038F8023B2268C3F308035360E28C4A
:1013B80092B2013A92B2E284E38C9BB293B1009666
:1013C8003B46002280212046FFF74AFF0028E3D150
:1013D800002DE6D015F8012B23685A60E7E7A846E8
:1013E8000025E9E700963B46002240212046FFF70A
:1013F80037FF18B9202384F8413005E0202384F80A
:101408004130032000E0022002B0BDE8F081012055
:10141800FAE702440346934200D1704703F8011BE0
:10142800F9E7000070B50D4D0D4C641BA4100026A3
:10143800A64209D10B4D0C4C00F07EF8641BA41099
:101448000026A64205D170BD55F8043B98470136E1
:10145800EEE755F8043B98470136F2E7981500087F
:101468009815000898150008A015000870477047DF
:10147800024B13B1024800F005B8704700000000A5
:1014880099140008002301461A46184600F014B8BB
:1014980038B5074D074C641BA4101CB9BDE838408B
:1014A80000F050B8013C55F824309847F5E700BFE4
:1014B800A0150008A41500082DE9F047DFF86CA076
:1014C8000646DAF8000098460F469146FFF7CEFF29
:1014D800174B1C680CB9174C1C606568DAF80000DB
:1014E8001F2D05DDFFF7C3FF4FF0FF30BDE8F08784
:1014F8009EB104EB85010122C1F88890D4F88831A7
:10150800AA401343C4F88831022EC1F8088102BFEB
:10151800D4F88C311343C4F88C316B1C02356360EA
:1015280044F82570FFF7A3FF0020DFE70C00002038
:101538007C00002080000020F8B500BFF8BC08BC83
:101548009E467047F8B500BFF8BC08BC9E46704779
:101558007465737454454D504C4154453A20206885
:10156800656C6C6F2C20776F726C64210D0A00001B
:101578000000000001020304000000000000000059
:08158800010203040607080933
:0815900068ECFF7F0100000080
:0815980079140008AD01000800
:0415A00089010008B5
:1015A4000024F40001000000100000007800002076
:04000005080006C920
:00000001FF
